{
  "contractName": "MyToken",
  "abi": [
    {
      "inputs": [
        {
          "internalType": "address",
          "name": "_owner",
          "type": "address"
        },
        {
          "internalType": "uint256",
          "name": "initialSupply",
          "type": "uint256"
        },
        {
          "internalType": "string",
          "name": "tokenName",
          "type": "string"
        },
        {
          "internalType": "string",
          "name": "tokenSymbol",
          "type": "string"
        }
      ],
      "stateMutability": "nonpayable",
      "type": "constructor"
    },
    {
      "anonymous": false,
      "inputs": [
        {
          "indexed": true,
          "internalType": "address",
          "name": "owner",
          "type": "address"
        },
        {
          "indexed": true,
          "internalType": "address",
          "name": "spender",
          "type": "address"
        },
        {
          "indexed": false,
          "internalType": "uint256",
          "name": "value",
          "type": "uint256"
        }
      ],
      "name": "Approval",
      "type": "event"
    },
    {
      "anonymous": false,
      "inputs": [
        {
          "indexed": true,
          "internalType": "address",
          "name": "burner",
          "type": "address"
        },
        {
          "indexed": false,
          "internalType": "uint256",
          "name": "amount",
          "type": "uint256"
        }
      ],
      "name": "Burn",
      "type": "event"
    },
    {
      "anonymous": false,
      "inputs": [
        {
          "indexed": true,
          "internalType": "address",
          "name": "from",
          "type": "address"
        },
        {
          "indexed": true,
          "internalType": "address",
          "name": "to",
          "type": "address"
        },
        {
          "indexed": false,
          "internalType": "uint256",
          "name": "value",
          "type": "uint256"
        }
      ],
      "name": "Transfer",
      "type": "event"
    },
    {
      "inputs": [
        {
          "internalType": "address",
          "name": "",
          "type": "address"
        },
        {
          "internalType": "address",
          "name": "",
          "type": "address"
        }
      ],
      "name": "allowance",
      "outputs": [
        {
          "internalType": "uint256",
          "name": "",
          "type": "uint256"
        }
      ],
      "stateMutability": "view",
      "type": "function",
      "constant": true
    },
    {
      "inputs": [
        {
          "internalType": "address",
          "name": "",
          "type": "address"
        }
      ],
      "name": "balanceOf",
      "outputs": [
        {
          "internalType": "uint256",
          "name": "",
          "type": "uint256"
        }
      ],
      "stateMutability": "view",
      "type": "function",
      "constant": true
    },
    {
      "inputs": [],
      "name": "decimals",
      "outputs": [
        {
          "internalType": "uint8",
          "name": "",
          "type": "uint8"
        }
      ],
      "stateMutability": "view",
      "type": "function",
      "constant": true
    },
    {
      "inputs": [
        {
          "internalType": "address",
          "name": "",
          "type": "address"
        }
      ],
      "name": "isAMLVerified",
      "outputs": [
        {
          "internalType": "bool",
          "name": "",
          "type": "bool"
        }
      ],
      "stateMutability": "view",
      "type": "function",
      "constant": true
    },
    {
      "inputs": [
        {
          "internalType": "address",
          "name": "",
          "type": "address"
        }
      ],
      "name": "isKYCVerified",
      "outputs": [
        {
          "internalType": "bool",
          "name": "",
          "type": "bool"
        }
      ],
      "stateMutability": "view",
      "type": "function",
      "constant": true
    },
    {
      "inputs": [],
      "name": "name",
      "outputs": [
        {
          "internalType": "string",
          "name": "",
          "type": "string"
        }
      ],
      "stateMutability": "view",
      "type": "function",
      "constant": true
    },
    {
      "inputs": [],
      "name": "owner",
      "outputs": [
        {
          "internalType": "address",
          "name": "",
          "type": "address"
        }
      ],
      "stateMutability": "view",
      "type": "function",
      "constant": true
    },
    {
      "inputs": [],
      "name": "symbol",
      "outputs": [
        {
          "internalType": "string",
          "name": "",
          "type": "string"
        }
      ],
      "stateMutability": "view",
      "type": "function",
      "constant": true
    },
    {
      "inputs": [],
      "name": "totalSupply",
      "outputs": [
        {
          "internalType": "uint256",
          "name": "",
          "type": "uint256"
        }
      ],
      "stateMutability": "view",
      "type": "function",
      "constant": true
    },
    {
      "inputs": [
        {
          "internalType": "address",
          "name": "to",
          "type": "address"
        },
        {
          "internalType": "uint256",
          "name": "amount",
          "type": "uint256"
        }
      ],
      "name": "mint",
      "outputs": [],
      "stateMutability": "nonpayable",
      "type": "function"
    },
    {
      "inputs": [
        {
          "internalType": "address",
          "name": "recipient",
          "type": "address"
        },
        {
          "internalType": "uint256",
          "name": "amount",
          "type": "uint256"
        }
      ],
      "name": "transfer",
      "outputs": [],
      "stateMutability": "nonpayable",
      "type": "function"
    },
    {
      "inputs": [
        {
          "internalType": "address",
          "name": "spender",
          "type": "address"
        },
        {
          "internalType": "uint256",
          "name": "amount",
          "type": "uint256"
        }
      ],
      "name": "approve",
      "outputs": [
        {
          "internalType": "bool",
          "name": "",
          "type": "bool"
        }
      ],
      "stateMutability": "nonpayable",
      "type": "function"
    },
    {
      "inputs": [
        {
          "internalType": "address",
          "name": "sender",
          "type": "address"
        },
        {
          "internalType": "address",
          "name": "recipient",
          "type": "address"
        },
        {
          "internalType": "uint256",
          "name": "amount",
          "type": "uint256"
        }
      ],
      "name": "transferFrom",
      "outputs": [],
      "stateMutability": "nonpayable",
      "type": "function"
    },
    {
      "inputs": [
        {
          "internalType": "address",
          "name": "burner",
          "type": "address"
        },
        {
          "internalType": "uint256",
          "name": "amount",
          "type": "uint256"
        }
      ],
      "name": "burn",
      "outputs": [],
      "stateMutability": "nonpayable",
      "type": "function"
    },
    {
      "inputs": [
        {
          "internalType": "address",
          "name": "_user",
          "type": "address"
        }
      ],
      "name": "verifyKYC",
      "outputs": [],
      "stateMutability": "nonpayable",
      "type": "function"
    },
    {
      "inputs": [
        {
          "internalType": "address",
          "name": "_user",
          "type": "address"
        }
      ],
      "name": "verifyAML",
      "outputs": [],
      "stateMutability": "nonpayable",
      "type": "function"
    }
  ],
  "bytecode": "0x60806040523480156200001157600080fd5b50604051620022f3380380620022f3833981810160405281019062000037919062000342565b83600460006101000a81548173ffffffffffffffffffffffffffffffffffffffff021916908373ffffffffffffffffffffffffffffffffffffffff16021790555082600381905550600354600560003373ffffffffffffffffffffffffffffffffffffffff1673ffffffffffffffffffffffffffffffffffffffff168152602001908152602001600020819055508160009081620000d6919062000633565b508060019081620000e8919062000633565b506012600260006101000a81548160ff021916908360ff160217905550505050506200071a565b6000604051905090565b600080fd5b600080fd5b600073ffffffffffffffffffffffffffffffffffffffff82169050919050565b6000620001508262000123565b9050919050565b620001628162000143565b81146200016e57600080fd5b50565b600081519050620001828162000157565b92915050565b6000819050919050565b6200019d8162000188565b8114620001a957600080fd5b50565b600081519050620001bd8162000192565b92915050565b600080fd5b600080fd5b6000601f19601f8301169050919050565b7f4e487b7100000000000000000000000000000000000000000000000000000000600052604160045260246000fd5b6200021882620001cd565b810181811067ffffffffffffffff821117156200023a5762000239620001de565b5b80604052505050565b60006200024f6200010f565b90506200025d82826200020d565b919050565b600067ffffffffffffffff82111562000280576200027f620001de565b5b6200028b82620001cd565b9050602081019050919050565b60005b83811015620002b85780820151818401526020810190506200029b565b60008484015250505050565b6000620002db620002d58462000262565b62000243565b905082815260208101848484011115620002fa57620002f9620001c8565b5b6200030784828562000298565b509392505050565b600082601f830112620003275762000326620001c3565b5b815162000339848260208601620002c4565b91505092915050565b600080600080608085870312156200035f576200035e62000119565b5b60006200036f8782880162000171565b94505060206200038287828801620001ac565b935050604085015167ffffffffffffffff811115620003a657620003a56200011e565b5b620003b4878288016200030f565b925050606085015167ffffffffffffffff811115620003d857620003d76200011e565b5b620003e6878288016200030f565b91505092959194509250565b600081519050919050565b7f4e487b7100000000000000000000000000000000000000000000000000000000600052602260045260246000fd5b600060028204905060018216806200044557607f821691505b6020821081036200045b576200045a620003fd565b5b50919050565b60008190508160005260206000209050919050565b60006020601f8301049050919050565b600082821b905092915050565b600060088302620004c57fffffffffffffffffffffffffffffffffffffffffffffffffffffffffffffffff8262000486565b620004d1868362000486565b95508019841693508086168417925050509392505050565b6000819050919050565b6000620005146200050e620005088462000188565b620004e9565b62000188565b9050919050565b6000819050919050565b6200053083620004f3565b620005486200053f826200051b565b84845462000493565b825550505050565b600090565b6200055f62000550565b6200056c81848462000525565b505050565b5b8181101562000594576200058860008262000555565b60018101905062000572565b5050565b601f821115620005e357620005ad8162000461565b620005b88462000476565b81016020851015620005c8578190505b620005e0620005d78562000476565b83018262000571565b50505b505050565b600082821c905092915050565b60006200060860001984600802620005e8565b1980831691505092915050565b6000620006238383620005f5565b9150826002028217905092915050565b6200063e82620003f2565b67ffffffffffffffff8111156200065a5762000659620001de565b5b6200066682546200042c565b6200067382828562000598565b600060209050601f831160018114620006ab576000841562000696578287015190505b620006a2858262000615565b86555062000712565b601f198416620006bb8662000461565b60005b82811015620006e557848901518255600182019150602085019450602081019050620006be565b8683101562000705578489015162000701601f891682620005f5565b8355505b6001600288020188555050505b505050505050565b611bc9806200072a6000396000f3fe608060405234801561001057600080fd5b50600436106101005760003560e01c806354b7636e1161009757806395d89b411161006657806395d89b41146102ad5780639dc29fac146102cb578063a9059cbb146102e7578063dd62ed3e1461030357610100565b806354b7636e146101ff57806355f259d11461022f57806370a082311461025f5780638da5cb5b1461028f57610100565b806330ca3445116100d357806330ca34451461018d578063313ce567146101a957806338d16011146101c757806340c10f19146101e357610100565b806306fdde0314610105578063095ea7b31461012357806318160ddd1461015357806323b872dd14610171575b600080fd5b61010d610333565b60405161011a9190611376565b60405180910390f35b61013d60048036038101906101389190611431565b6103c1565b60405161014a919061148c565b60405180910390f35b61015b6104eb565b60405161016891906114b6565b60405180910390f35b61018b600480360381019061018691906114d1565b6104f1565b005b6101a760048036038101906101a29190611524565b6109bc565b005b6101b1610aa7565b6040516101be919061156d565b60405180910390f35b6101e160048036038101906101dc9190611524565b610aba565b005b6101fd60048036038101906101f89190611431565b610ba5565b005b61021960048036038101906102149190611524565b610d8a565b604051610226919061148c565b60405180910390f35b61024960048036038101906102449190611524565b610daa565b604051610256919061148c565b60405180910390f35b61027960048036038101906102749190611524565b610dca565b60405161028691906114b6565b60405180910390f35b610297610de2565b6040516102a49190611597565b60405180910390f35b6102b5610e08565b6040516102c29190611376565b60405180910390f35b6102e560048036038101906102e09190611431565b610e96565b005b61030160048036038101906102fc9190611431565b610fa3565b005b61031d600480360381019061031891906115b2565b6112c1565b60405161032a91906114b6565b60405180910390f35b6000805461034090611621565b80601f016020809104026020016040519081016040528092919081815260200182805461036c90611621565b80156103b95780601f1061038e576101008083540402835291602001916103b9565b820191906000526020600020905b81548152906001019060200180831161039c57829003601f168201915b505050505081565b60008073ffffffffffffffffffffffffffffffffffffffff168373ffffffffffffffffffffffffffffffffffffffff16036103fb57600080fd5b81600660003373ffffffffffffffffffffffffffffffffffffffff1673ffffffffffffffffffffffffffffffffffffffff16815260200190815260200160002060008573ffffffffffffffffffffffffffffffffffffffff1673ffffffffffffffffffffffffffffffffffffffff168152602001908152602001600020819055508273ffffffffffffffffffffffffffffffffffffffff163373ffffffffffffffffffffffffffffffffffffffff167f8c5be1e5ebec7d5bd14f71427d1e84f3dd0314c0f7b2291e5b200ac8c7c3b925846040516104d991906114b6565b60405180910390a36001905092915050565b60035481565b600073ffffffffffffffffffffffffffffffffffffffff168373ffffffffffffffffffffffffffffffffffffffff160361052a57600080fd5b600073ffffffffffffffffffffffffffffffffffffffff168273ffffffffffffffffffffffffffffffffffffffff160361056357600080fd5b600760003373ffffffffffffffffffffffffffffffffffffffff1673ffffffffffffffffffffffffffffffffffffffff16815260200190815260200160002060009054906101000a900460ff166105ef576040517f08c379a00000000000000000000000000000000000000000000000000000000081526004016105e69061169e565b60405180910390fd5b600860003373ffffffffffffffffffffffffffffffffffffffff1673ffffffffffffffffffffffffffffffffffffffff16815260200190815260200160002060009054906101000a900460ff1661067b576040517f08c379a00000000000000000000000000000000000000000000000000000000081526004016106729061170a565b60405180910390fd5b6000811161068857600080fd5b80600660008573ffffffffffffffffffffffffffffffffffffffff1673ffffffffffffffffffffffffffffffffffffffff16815260200190815260200160002060003373ffffffffffffffffffffffffffffffffffffffff1673ffffffffffffffffffffffffffffffffffffffff168152602001908152602001600020541015610747576040517f08c379a000000000000000000000000000000000000000000000000000000000815260040161073e90611776565b60405180910390fd5b600560008373ffffffffffffffffffffffffffffffffffffffff1673ffffffffffffffffffffffffffffffffffffffff1681526020019081526020016000205481600560008573ffffffffffffffffffffffffffffffffffffffff1673ffffffffffffffffffffffffffffffffffffffff168152602001908152602001600020546107d291906117c5565b1015610813576040517f08c379a000000000000000000000000000000000000000000000000000000000815260040161080a90611845565b60405180910390fd5b80600660008573ffffffffffffffffffffffffffffffffffffffff1673ffffffffffffffffffffffffffffffffffffffff16815260200190815260200160002060003373ffffffffffffffffffffffffffffffffffffffff1673ffffffffffffffffffffffffffffffffffffffff168152602001908152602001600020600082825461089f9190611865565b9250508190555080600560008573ffffffffffffffffffffffffffffffffffffffff1673ffffffffffffffffffffffffffffffffffffffff16815260200190815260200160002060008282546108f59190611865565b9250508190555080600560008473ffffffffffffffffffffffffffffffffffffffff1673ffffffffffffffffffffffffffffffffffffffff168152602001908152602001600020600082825461094b91906117c5565b925050819055508173ffffffffffffffffffffffffffffffffffffffff168373ffffffffffffffffffffffffffffffffffffffff167fddf252ad1be2c89b69c2b068fc378daa952ba7f163c4a11628f55a4df523b3ef836040516109af91906114b6565b60405180910390a3505050565b600460009054906101000a900473ffffffffffffffffffffffffffffffffffffffff1673ffffffffffffffffffffffffffffffffffffffff163373ffffffffffffffffffffffffffffffffffffffff1614610a4c576040517f08c379a0000000000000000000000000000000000000000000000000000000008152600401610a439061190b565b60405180910390fd5b6001600860008373ffffffffffffffffffffffffffffffffffffffff1673ffffffffffffffffffffffffffffffffffffffff16815260200190815260200160002060006101000a81548160ff02191690831515021790555050565b600260009054906101000a900460ff1681565b600460009054906101000a900473ffffffffffffffffffffffffffffffffffffffff1673ffffffffffffffffffffffffffffffffffffffff163373ffffffffffffffffffffffffffffffffffffffff1614610b4a576040517f08c379a0000000000000000000000000000000000000000000000000000000008152600401610b419061199d565b60405180910390fd5b6001600760008373ffffffffffffffffffffffffffffffffffffffff1673ffffffffffffffffffffffffffffffffffffffff16815260200190815260200160002060006101000a81548160ff02191690831515021790555050565b600460009054906101000a900473ffffffffffffffffffffffffffffffffffffffff1673ffffffffffffffffffffffffffffffffffffffff163373ffffffffffffffffffffffffffffffffffffffff1614610c35576040517f08c379a0000000000000000000000000000000000000000000000000000000008152600401610c2c90611a2f565b60405180910390fd5b60008111610c78576040517f08c379a0000000000000000000000000000000000000000000000000000000008152600401610c6f90611a9b565b60405180910390fd5b600073ffffffffffffffffffffffffffffffffffffffff168273ffffffffffffffffffffffffffffffffffffffff1603610cb157600080fd5b8060036000828254610cc391906117c5565b9250508190555080600560008473ffffffffffffffffffffffffffffffffffffffff1673ffffffffffffffffffffffffffffffffffffffff1681526020019081526020016000206000828254610d1991906117c5565b925050819055508173ffffffffffffffffffffffffffffffffffffffff16600073ffffffffffffffffffffffffffffffffffffffff167fddf252ad1be2c89b69c2b068fc378daa952ba7f163c4a11628f55a4df523b3ef83604051610d7e91906114b6565b60405180910390a35050565b60076020528060005260406000206000915054906101000a900460ff1681565b60086020528060005260406000206000915054906101000a900460ff1681565b60056020528060005260406000206000915090505481565b600460009054906101000a900473ffffffffffffffffffffffffffffffffffffffff1681565b60018054610e1590611621565b80601f0160208091040260200160405190810160405280929190818152602001828054610e4190611621565b8015610e8e5780601f10610e6357610100808354040283529160200191610e8e565b820191906000526020600020905b815481529060010190602001808311610e7157829003601f168201915b505050505081565b80600560008473ffffffffffffffffffffffffffffffffffffffff1673ffffffffffffffffffffffffffffffffffffffff168152602001908152602001600020541015610ee257600080fd5b80600560008473ffffffffffffffffffffffffffffffffffffffff1673ffffffffffffffffffffffffffffffffffffffff1681526020019081526020016000206000828254610f319190611865565b925050819055508060036000828254610f4a9190611865565b925050819055508173ffffffffffffffffffffffffffffffffffffffff167fcc16f5dbb4873280815c1ee09dbd06736cffcc184412cf7a71a0fdb75d397ca582604051610f9791906114b6565b60405180910390a25050565b600760003373ffffffffffffffffffffffffffffffffffffffff1673ffffffffffffffffffffffffffffffffffffffff16815260200190815260200160002060009054906101000a900460ff1661102f576040517f08c379a00000000000000000000000000000000000000000000000000000000081526004016110269061169e565b60405180910390fd5b600860003373ffffffffffffffffffffffffffffffffffffffff1673ffffffffffffffffffffffffffffffffffffffff16815260200190815260200160002060009054906101000a900460ff166110bb576040517f08c379a00000000000000000000000000000000000000000000000000000000081526004016110b29061170a565b60405180910390fd5b80600560003373ffffffffffffffffffffffffffffffffffffffff1673ffffffffffffffffffffffffffffffffffffffff16815260200190815260200160002054101561113d576040517f08c379a000000000000000000000000000000000000000000000000000000000815260040161113490611b07565b60405180910390fd5b600073ffffffffffffffffffffffffffffffffffffffff168273ffffffffffffffffffffffffffffffffffffffff16036111ac576040517f08c379a00000000000000000000000000000000000000000000000000000000081526004016111a390611b73565b60405180910390fd5b80600560003373ffffffffffffffffffffffffffffffffffffffff1673ffffffffffffffffffffffffffffffffffffffff16815260200190815260200160002060008282546111fb9190611865565b9250508190555080600560008473ffffffffffffffffffffffffffffffffffffffff1673ffffffffffffffffffffffffffffffffffffffff168152602001908152602001600020600082825461125191906117c5565b925050819055508173ffffffffffffffffffffffffffffffffffffffff163373ffffffffffffffffffffffffffffffffffffffff167fddf252ad1be2c89b69c2b068fc378daa952ba7f163c4a11628f55a4df523b3ef836040516112b591906114b6565b60405180910390a35050565b6006602052816000526040600020602052806000526040600020600091509150505481565b600081519050919050565b600082825260208201905092915050565b60005b83811015611320578082015181840152602081019050611305565b60008484015250505050565b6000601f19601f8301169050919050565b6000611348826112e6565b61135281856112f1565b9350611362818560208601611302565b61136b8161132c565b840191505092915050565b60006020820190508181036000830152611390818461133d565b905092915050565b600080fd5b600073ffffffffffffffffffffffffffffffffffffffff82169050919050565b60006113c88261139d565b9050919050565b6113d8816113bd565b81146113e357600080fd5b50565b6000813590506113f5816113cf565b92915050565b6000819050919050565b61140e816113fb565b811461141957600080fd5b50565b60008135905061142b81611405565b92915050565b6000806040838503121561144857611447611398565b5b6000611456858286016113e6565b92505060206114678582860161141c565b9150509250929050565b60008115159050919050565b61148681611471565b82525050565b60006020820190506114a1600083018461147d565b92915050565b6114b0816113fb565b82525050565b60006020820190506114cb60008301846114a7565b92915050565b6000806000606084860312156114ea576114e9611398565b5b60006114f8868287016113e6565b9350506020611509868287016113e6565b925050604061151a8682870161141c565b9150509250925092565b60006020828403121561153a57611539611398565b5b6000611548848285016113e6565b91505092915050565b600060ff82169050919050565b61156781611551565b82525050565b6000602082019050611582600083018461155e565b92915050565b611591816113bd565b82525050565b60006020820190506115ac6000830184611588565b92915050565b600080604083850312156115c9576115c8611398565b5b60006115d7858286016113e6565b92505060206115e8858286016113e6565b9150509250929050565b7f4e487b7100000000000000000000000000000000000000000000000000000000600052602260045260246000fd5b6000600282049050600182168061163957607f821691505b60208210810361164c5761164b6115f2565b5b50919050565b7f53656e646572206d757374206265204b59432076657269666965642e00000000600082015250565b6000611688601c836112f1565b915061169382611652565b602082019050919050565b600060208201905081810360008301526116b78161167b565b9050919050565b7f53656e646572206d75737420626520414d4c2076657269666965642e00000000600082015250565b60006116f4601c836112f1565b91506116ff826116be565b602082019050919050565b60006020820190508181036000830152611723816116e7565b9050919050565b7f4e6f7420656e6f75676820616c6c6f77616e63652e0000000000000000000000600082015250565b60006117606015836112f1565b915061176b8261172a565b602082019050919050565b6000602082019050818103600083015261178f81611753565b9050919050565b7f4e487b7100000000000000000000000000000000000000000000000000000000600052601160045260246000fd5b60006117d0826113fb565b91506117db836113fb565b92508282019050808211156117f3576117f2611796565b5b92915050565b7f4f766572666c6f772e0000000000000000000000000000000000000000000000600082015250565b600061182f6009836112f1565b915061183a826117f9565b602082019050919050565b6000602082019050818103600083015261185e81611822565b9050919050565b6000611870826113fb565b915061187b836113fb565b925082820390508181111561189357611892611796565b5b92915050565b7f4f6e6c7920746865206f776e65722063616e2076657269667920414d4c20737460008201527f617475732e000000000000000000000000000000000000000000000000000000602082015250565b60006118f56025836112f1565b915061190082611899565b604082019050919050565b60006020820190508181036000830152611924816118e8565b9050919050565b7f4f6e6c7920746865206f776e65722063616e20766572696679204b594320737460008201527f617475732e000000000000000000000000000000000000000000000000000000602082015250565b60006119876025836112f1565b91506119928261192b565b604082019050919050565b600060208201905081810360008301526119b68161197a565b9050919050565b7f4f6e6c7920746865206f776e65722063616e206d696e74206e657720746f6b6560008201527f6e73000000000000000000000000000000000000000000000000000000000000602082015250565b6000611a196022836112f1565b9150611a24826119bd565b604082019050919050565b60006020820190508181036000830152611a4881611a0c565b9050919050565b7f496e76616c69642076616c75652e000000000000000000000000000000000000600082015250565b6000611a85600e836112f1565b9150611a9082611a4f565b602082019050919050565b60006020820190508181036000830152611ab481611a78565b9050919050565b7f496e73756666696369656e742062616c616e6365000000000000000000000000600082015250565b6000611af16014836112f1565b9150611afc82611abb565b602082019050919050565b60006020820190508181036000830152611b2081611ae4565b9050919050565b7f526563697069656e7420616464726573732063616e6e6f742062652030783000600082015250565b6000611b5d601f836112f1565b9150611b6882611b27565b602082019050919050565b60006020820190508181036000830152611b8c81611b50565b905091905056fea264697066735822122098e4aebb7172341695b98f875db6584507003193bf735473a6ab49044438838564736f6c63430008110033",
  "immutableReferences": {},
  "source": "// SPDX-License-Identifier: GPL-3.0\r\npragma solidity >=0.7.0 <0.9.0;\r\n\r\nimport \"../node_modules/@openzeppelin/contracts/token/ERC20/utils/SafeERC20.sol\";\r\nimport \"../node_modules/@openzeppelin/contracts/token/ERC20/IERC20.sol\";\r\n\r\ncontract MyToken {\r\n    string public name;\r\n    string public symbol;\r\n    uint8 public decimals;\r\n    uint256 public totalSupply;\r\n    address public owner;\r\n\r\n    mapping(address => uint256) public balanceOf;\r\n    mapping(address => mapping(address => uint256)) public allowance;\r\n    mapping(address => bool) public isKYCVerified;\r\n    mapping(address => bool) public isAMLVerified;\r\n    event Burn(address indexed burner, uint256 amount);\r\n    event Transfer(address indexed from, address indexed to, uint256 value);\r\n    event Approval(\r\n        address indexed owner,\r\n        address indexed spender,\r\n        uint256 value\r\n    );\r\n\r\n    constructor(\r\n        address _owner,\r\n        uint256 initialSupply,\r\n        string memory tokenName,\r\n        string memory tokenSymbol\r\n    ) {\r\n        owner = _owner;\r\n        totalSupply = initialSupply;\r\n        balanceOf[msg.sender] = totalSupply;\r\n        name = tokenName;\r\n        symbol = tokenSymbol;\r\n        decimals = 18;\r\n    }\r\n\r\n    function mint(address to, uint256 amount) public {\r\n        require(msg.sender == owner, \"Only the owner can mint new tokens\");\r\n        require(amount > 0, \"Invalid value.\");\r\n        require(to != address(0));\r\n\r\n        totalSupply += amount;\r\n        balanceOf[to] += amount;\r\n\r\n        emit Transfer(address(0), to, amount);\r\n    }\r\n\r\n    function transfer(address recipient, uint256 amount) public {\r\n        require(isKYCVerified[msg.sender], \"Sender must be KYC verified.\");\r\n        require(isAMLVerified[msg.sender], \"Sender must be AML verified.\");\r\n        require(balanceOf[msg.sender] >= amount, \"Insufficient balance\");\r\n        require(recipient != address(0),\"Recipient address cannot be 0x0\");\r\n        // IERC20(address(this)).transfer(recipient, amount);\r\n        balanceOf[msg.sender] -= amount;\r\n        balanceOf[recipient] += amount;\r\n        emit Transfer(msg.sender, recipient, amount);\r\n    }\r\n\r\n    function approve(address spender, uint256 amount) public returns (bool) {\r\n        require(spender != address(0));\r\n        allowance[msg.sender][spender] = amount;\r\n        emit Approval(msg.sender, spender, amount);\r\n\r\n        return true;\r\n    }\r\n\r\n    function transferFrom(\r\n        address sender,\r\n        address recipient,\r\n        uint256 amount\r\n    ) public {\r\n        require(sender != address(0));\r\n        require(recipient != address(0));\r\n        require(isKYCVerified[msg.sender], \"Sender must be KYC verified.\");\r\n        require(isAMLVerified[msg.sender], \"Sender must be AML verified.\");\r\n        require(amount > 0);\r\n        require(\r\n            allowance[sender][msg.sender] >= amount,\r\n            \"Not enough allowance.\"\r\n        );\r\n        require(\r\n            balanceOf[recipient] + amount >= balanceOf[recipient],\r\n            \"Overflow.\"\r\n        );\r\n\r\n        allowance[sender][msg.sender] -= amount;\r\n        balanceOf[sender] -= amount;\r\n        balanceOf[recipient] += amount;\r\n        emit Transfer(sender, recipient, amount);\r\n    }\r\n\r\n    function burn(address burner, uint256 amount) public {\r\n        require(balanceOf[burner] >= amount);\r\n        balanceOf[burner] -= amount;\r\n        totalSupply -= amount;\r\n        emit Burn(burner, amount);\r\n    }\r\n\r\n    // Only the owner can verify a user's KYC status\r\n    function verifyKYC(address _user) public {\r\n        require(msg.sender == owner, \"Only the owner can verify KYC status.\");\r\n        isKYCVerified[_user] = true;\r\n    }\r\n\r\n    // Only the owner can verify a user's AML status\r\n    function verifyAML(address _user) public {\r\n        require(msg.sender == owner, \"Only the owner can verify AML status.\");\r\n        isAMLVerified[_user] = true;\r\n    }\r\n}\r\n",
  "sourcePath": "C:\\xampp\\htdocs\\TokenKss\\clientkss\\contracts\\MyToken.sol",
  "compiler": {
    "name": "solc",
    "version": "0.8.17+commit.8df45f5f.Emscripten.clang"
  },
  "schemaVersion": "3.4.11",
  "updatedAt": "2023-02-16T04:28:22.187Z",
  "networkType": "ethereum",
  "devdoc": {
    "kind": "dev",
    "methods": {},
    "version": 1
  },
  "userdoc": {
    "kind": "user",
    "methods": {},
    "version": 1
  }
}