{
  "contractName": "NFTCowCert",
  "abi": [
    {
      "inputs": [],
      "stateMutability": "nonpayable",
      "type": "constructor"
    },
    {
      "anonymous": false,
      "inputs": [
        {
          "indexed": true,
          "internalType": "address",
          "name": "owner",
          "type": "address"
        },
        {
          "indexed": true,
          "internalType": "address",
          "name": "approved",
          "type": "address"
        },
        {
          "indexed": true,
          "internalType": "uint256",
          "name": "tokenId",
          "type": "uint256"
        }
      ],
      "name": "Approval",
      "type": "event"
    },
    {
      "anonymous": false,
      "inputs": [
        {
          "indexed": true,
          "internalType": "address",
          "name": "owner",
          "type": "address"
        },
        {
          "indexed": true,
          "internalType": "address",
          "name": "operator",
          "type": "address"
        },
        {
          "indexed": false,
          "internalType": "bool",
          "name": "approved",
          "type": "bool"
        }
      ],
      "name": "ApprovalForAll",
      "type": "event"
    },
    {
      "anonymous": false,
      "inputs": [
        {
          "indexed": false,
          "internalType": "uint256",
          "name": "id",
          "type": "uint256"
        },
        {
          "indexed": false,
          "internalType": "string",
          "name": "tokendid",
          "type": "string"
        },
        {
          "indexed": false,
          "internalType": "string",
          "name": "cowCertlist",
          "type": "string"
        },
        {
          "indexed": false,
          "internalType": "string",
          "name": "imgPath",
          "type": "string"
        }
      ],
      "name": "TaskCreateNFTCowCert",
      "type": "event"
    },
    {
      "anonymous": false,
      "inputs": [
        {
          "indexed": false,
          "internalType": "uint256",
          "name": "userId",
          "type": "uint256"
        },
        {
          "indexed": false,
          "internalType": "address",
          "name": "government",
          "type": "address"
        },
        {
          "indexed": false,
          "internalType": "string",
          "name": "username",
          "type": "string"
        }
      ],
      "name": "TaskCreatedadmin",
      "type": "event"
    },
    {
      "anonymous": false,
      "inputs": [
        {
          "indexed": true,
          "internalType": "address",
          "name": "from",
          "type": "address"
        },
        {
          "indexed": true,
          "internalType": "address",
          "name": "to",
          "type": "address"
        },
        {
          "indexed": true,
          "internalType": "uint256",
          "name": "tokenId",
          "type": "uint256"
        }
      ],
      "name": "Transfer",
      "type": "event"
    },
    {
      "inputs": [
        {
          "internalType": "uint256",
          "name": "",
          "type": "uint256"
        }
      ],
      "name": "BlocklistNFTCow",
      "outputs": [
        {
          "internalType": "uint256",
          "name": "id",
          "type": "uint256"
        },
        {
          "internalType": "string",
          "name": "tokendId",
          "type": "string"
        },
        {
          "internalType": "string",
          "name": "cowCertlist",
          "type": "string"
        },
        {
          "internalType": "string",
          "name": "imgPath",
          "type": "string"
        }
      ],
      "stateMutability": "view",
      "type": "function",
      "constant": true
    },
    {
      "inputs": [],
      "name": "NFTCowCount",
      "outputs": [
        {
          "internalType": "uint256",
          "name": "",
          "type": "uint256"
        }
      ],
      "stateMutability": "view",
      "type": "function",
      "constant": true
    },
    {
      "inputs": [
        {
          "internalType": "uint256",
          "name": "",
          "type": "uint256"
        }
      ],
      "name": "TaskMapOwner",
      "outputs": [
        {
          "internalType": "uint256",
          "name": "userId",
          "type": "uint256"
        },
        {
          "internalType": "address",
          "name": "government",
          "type": "address"
        },
        {
          "internalType": "string",
          "name": "username",
          "type": "string"
        }
      ],
      "stateMutability": "view",
      "type": "function",
      "constant": true
    },
    {
      "inputs": [
        {
          "internalType": "address",
          "name": "to",
          "type": "address"
        },
        {
          "internalType": "uint256",
          "name": "tokenId",
          "type": "uint256"
        }
      ],
      "name": "approve",
      "outputs": [],
      "stateMutability": "nonpayable",
      "type": "function"
    },
    {
      "inputs": [
        {
          "internalType": "address",
          "name": "owner",
          "type": "address"
        }
      ],
      "name": "balanceOf",
      "outputs": [
        {
          "internalType": "uint256",
          "name": "",
          "type": "uint256"
        }
      ],
      "stateMutability": "view",
      "type": "function",
      "constant": true
    },
    {
      "inputs": [
        {
          "internalType": "uint256",
          "name": "",
          "type": "uint256"
        }
      ],
      "name": "blockCowcert",
      "outputs": [
        {
          "internalType": "bool",
          "name": "",
          "type": "bool"
        }
      ],
      "stateMutability": "view",
      "type": "function",
      "constant": true
    },
    {
      "inputs": [
        {
          "internalType": "uint256",
          "name": "tokenId",
          "type": "uint256"
        }
      ],
      "name": "getApproved",
      "outputs": [
        {
          "internalType": "address",
          "name": "",
          "type": "address"
        }
      ],
      "stateMutability": "view",
      "type": "function",
      "constant": true
    },
    {
      "inputs": [
        {
          "internalType": "address",
          "name": "owner",
          "type": "address"
        },
        {
          "internalType": "address",
          "name": "operator",
          "type": "address"
        }
      ],
      "name": "isApprovedForAll",
      "outputs": [
        {
          "internalType": "bool",
          "name": "",
          "type": "bool"
        }
      ],
      "stateMutability": "view",
      "type": "function",
      "constant": true
    },
    {
      "inputs": [],
      "name": "name",
      "outputs": [
        {
          "internalType": "string",
          "name": "",
          "type": "string"
        }
      ],
      "stateMutability": "view",
      "type": "function",
      "constant": true
    },
    {
      "inputs": [],
      "name": "ownerCount",
      "outputs": [
        {
          "internalType": "uint256",
          "name": "",
          "type": "uint256"
        }
      ],
      "stateMutability": "view",
      "type": "function",
      "constant": true
    },
    {
      "inputs": [
        {
          "internalType": "uint256",
          "name": "tokenId",
          "type": "uint256"
        }
      ],
      "name": "ownerOf",
      "outputs": [
        {
          "internalType": "address",
          "name": "",
          "type": "address"
        }
      ],
      "stateMutability": "view",
      "type": "function",
      "constant": true
    },
    {
      "inputs": [
        {
          "internalType": "address",
          "name": "operator",
          "type": "address"
        },
        {
          "internalType": "bool",
          "name": "approved",
          "type": "bool"
        }
      ],
      "name": "setApprovalForAll",
      "outputs": [],
      "stateMutability": "nonpayable",
      "type": "function"
    },
    {
      "inputs": [
        {
          "internalType": "bytes4",
          "name": "interfaceId",
          "type": "bytes4"
        }
      ],
      "name": "supportsInterface",
      "outputs": [
        {
          "internalType": "bool",
          "name": "",
          "type": "bool"
        }
      ],
      "stateMutability": "view",
      "type": "function",
      "constant": true
    },
    {
      "inputs": [],
      "name": "symbol",
      "outputs": [
        {
          "internalType": "string",
          "name": "",
          "type": "string"
        }
      ],
      "stateMutability": "view",
      "type": "function",
      "constant": true
    },
    {
      "inputs": [
        {
          "internalType": "uint256",
          "name": "tokenId",
          "type": "uint256"
        }
      ],
      "name": "tokenURI",
      "outputs": [
        {
          "internalType": "string",
          "name": "",
          "type": "string"
        }
      ],
      "stateMutability": "view",
      "type": "function",
      "constant": true
    },
    {
      "inputs": [
        {
          "internalType": "address",
          "name": "from",
          "type": "address"
        },
        {
          "internalType": "address",
          "name": "to",
          "type": "address"
        },
        {
          "internalType": "uint256",
          "name": "tokenId",
          "type": "uint256"
        }
      ],
      "name": "transferFrom",
      "outputs": [],
      "stateMutability": "nonpayable",
      "type": "function"
    },
    {
      "inputs": [
        {
          "internalType": "address",
          "name": "_government",
          "type": "address"
        },
        {
          "internalType": "string",
          "name": "_username",
          "type": "string"
        }
      ],
      "name": "addNFTCowAdmin",
      "outputs": [],
      "stateMutability": "nonpayable",
      "type": "function"
    },
    {
      "inputs": [
        {
          "internalType": "address",
          "name": "_custCowCert",
          "type": "address"
        },
        {
          "internalType": "string",
          "name": "_tokenId",
          "type": "string"
        },
        {
          "internalType": "string",
          "name": "_cowCertlist",
          "type": "string"
        },
        {
          "internalType": "string",
          "name": "_imgPath",
          "type": "string"
        }
      ],
      "name": "tokenMintCowCert",
      "outputs": [],
      "stateMutability": "nonpayable",
      "type": "function"
    },
    {
      "inputs": [
        {
          "internalType": "uint256",
          "name": "_tokenId",
          "type": "uint256"
        }
      ],
      "name": "blockNFTCow",
      "outputs": [],
      "stateMutability": "nonpayable",
      "type": "function"
    },
    {
      "inputs": [
        {
          "internalType": "uint256",
          "name": "_tokenId",
          "type": "uint256"
        }
      ],
      "name": "unBlockNFTCow",
      "outputs": [],
      "stateMutability": "nonpayable",
      "type": "function"
    },
    {
      "inputs": [
        {
          "internalType": "address",
          "name": "_from",
          "type": "address"
        },
        {
          "internalType": "address",
          "name": "_to",
          "type": "address"
        },
        {
          "internalType": "uint256",
          "name": "_tokenId",
          "type": "uint256"
        }
      ],
      "name": "safeTransferFrom",
      "outputs": [],
      "stateMutability": "nonpayable",
      "type": "function"
    },
    {
      "inputs": [
        {
          "internalType": "address",
          "name": "from",
          "type": "address"
        },
        {
          "internalType": "address",
          "name": "to",
          "type": "address"
        },
        {
          "internalType": "uint256",
          "name": "tokenId",
          "type": "uint256"
        },
        {
          "internalType": "bytes",
          "name": "data",
          "type": "bytes"
        }
      ],
      "name": "safeTransferFrom",
      "outputs": [],
      "stateMutability": "nonpayable",
      "type": "function"
    }
  ],
  "bytecode": "0x6080604052600060065560006007553480156200001b57600080fd5b506040518060600160405280602f815260200162003c02602f91396040518060400160405280600681526020017f4e46544b5353000000000000000000000000000000000000000000000000000081525081600090816200007d9190620003fb565b5080600190816200008f9190620003fb565b505050604051806060016040528060065481526020013373ffffffffffffffffffffffffffffffffffffffff1681526020016040518060400160405280600881526020017f53757261646174680000000000000000000000000000000000000000000000008152508152506009600060065481526020019081526020016000206000820151816000015560208201518160010160006101000a81548173ffffffffffffffffffffffffffffffffffffffff021916908373ffffffffffffffffffffffffffffffffffffffff1602179055506040820151816002019081620001779190620003fb565b50905050620004e2565b600081519050919050565b7f4e487b7100000000000000000000000000000000000000000000000000000000600052604160045260246000fd5b7f4e487b7100000000000000000000000000000000000000000000000000000000600052602260045260246000fd5b600060028204905060018216806200020357607f821691505b602082108103620002195762000218620001bb565b5b50919050565b60008190508160005260206000209050919050565b60006020601f8301049050919050565b600082821b905092915050565b600060088302620002837fffffffffffffffffffffffffffffffffffffffffffffffffffffffffffffffff8262000244565b6200028f868362000244565b95508019841693508086168417925050509392505050565b6000819050919050565b6000819050919050565b6000620002dc620002d6620002d084620002a7565b620002b1565b620002a7565b9050919050565b6000819050919050565b620002f883620002bb565b620003106200030782620002e3565b84845462000251565b825550505050565b600090565b6200032762000318565b62000334818484620002ed565b505050565b5b818110156200035c57620003506000826200031d565b6001810190506200033a565b5050565b601f821115620003ab5762000375816200021f565b620003808462000234565b8101602085101562000390578190505b620003a86200039f8562000234565b83018262000339565b50505b505050565b600082821c905092915050565b6000620003d060001984600802620003b0565b1980831691505092915050565b6000620003eb8383620003bd565b9150826002028217905092915050565b620004068262000181565b67ffffffffffffffff8111156200042257620004216200018c565b5b6200042e8254620001ea565b6200043b82828562000360565b600060209050601f8311600181146200047357600084156200045e578287015190505b6200046a8582620003dd565b865550620004da565b601f19841662000483866200021f565b60005b82811015620004ad5784890151825560018201915060208501945060208101905062000486565b86831015620004cd5784890151620004c9601f891682620003bd565b8355505b6001600288020188555050505b505050505050565b61371080620004f26000396000f3fe608060405234801561001057600080fd5b50600436106101425760003560e01c80635f9db618116100b8578063af3e4bf51161007c578063af3e4bf51461038c578063b88d4fde146103a8578063c87b56dd146103c4578063e985e9c5146103f4578063f11a068414610424578063f741721b1461045457610142565b80635f9db618146102bf5780636352211e146102f257806370a082311461032257806395d89b4114610352578063a22cb4651461037057610142565b806316533d3c1161010a57806316533d3c146101ff57806323b872dd1461021b57806342842e0e146102375780634fe5e710146102535780634ff74d9f1461026f57806359d51d0b1461028d57610142565b806301ffc9a71461014757806306fdde0314610177578063081812fc14610195578063095ea7b3146101c55780630db02622146101e1575b600080fd5b610161600480360381019061015c91906122d0565b610470565b60405161016e9190612318565b60405180910390f35b61017f610552565b60405161018c91906123c3565b60405180910390f35b6101af60048036038101906101aa919061241b565b6105e4565b6040516101bc9190612489565b60405180910390f35b6101df60048036038101906101da91906124d0565b61062a565b005b6101e9610741565b6040516101f6919061251f565b60405180910390f35b6102196004803603810190610214919061266f565b610747565b005b610235600480360381019061023091906126cb565b6108f6565b005b610251600480360381019061024c91906126cb565b610956565b005b61026d6004803603810190610268919061271e565b610997565b005b610277610c5f565b604051610284919061251f565b60405180910390f35b6102a760048036038101906102a2919061241b565b610c65565b6040516102b6939291906127d9565b60405180910390f35b6102d960048036038101906102d4919061241b565b610d37565b6040516102e99493929190612817565b60405180910390f35b61030c6004803603810190610307919061241b565b610eff565b6040516103199190612489565b60405180910390f35b61033c60048036038101906103379190612871565b610fb0565b604051610349919061251f565b60405180910390f35b61035a611067565b60405161036791906123c3565b60405180910390f35b61038a600480360381019061038591906128ca565b6110f9565b005b6103a660048036038101906103a1919061241b565b61110f565b005b6103c260048036038101906103bd91906129ab565b611316565b005b6103de60048036038101906103d9919061241b565b611378565b6040516103eb91906123c3565b60405180910390f35b61040e60048036038101906104099190612a2e565b6113e0565b60405161041b9190612318565b60405180910390f35b61043e6004803603810190610439919061241b565b611474565b60405161044b9190612318565b60405180910390f35b61046e6004803603810190610469919061241b565b611494565b005b60007f80ac58cd000000000000000000000000000000000000000000000000000000007bffffffffffffffffffffffffffffffffffffffffffffffffffffffff1916827bffffffffffffffffffffffffffffffffffffffffffffffffffffffff1916148061053b57507f5b5e139f000000000000000000000000000000000000000000000000000000007bffffffffffffffffffffffffffffffffffffffffffffffffffffffff1916827bffffffffffffffffffffffffffffffffffffffffffffffffffffffff1916145b8061054b575061054a8261169b565b5b9050919050565b60606000805461056190612a9d565b80601f016020809104026020016040519081016040528092919081815260200182805461058d90612a9d565b80156105da5780601f106105af576101008083540402835291602001916105da565b820191906000526020600020905b8154815290600101906020018083116105bd57829003601f168201915b5050505050905090565b60006105ef82611705565b6004600083815260200190815260200160002060009054906101000a900473ffffffffffffffffffffffffffffffffffffffff169050919050565b600061063582610eff565b90508073ffffffffffffffffffffffffffffffffffffffff168373ffffffffffffffffffffffffffffffffffffffff16036106a5576040517f08c379a000000000000000000000000000000000000000000000000000000000815260040161069c90612b40565b60405180910390fd5b8073ffffffffffffffffffffffffffffffffffffffff166106c4611750565b73ffffffffffffffffffffffffffffffffffffffff1614806106f357506106f2816106ed611750565b6113e0565b5b610732576040517f08c379a000000000000000000000000000000000000000000000000000000000815260040161072990612bd2565b60405180910390fd5b61073c8383611758565b505050565b60065481565b6009600080815260200190815260200160002060010160009054906101000a900473ffffffffffffffffffffffffffffffffffffffff1673ffffffffffffffffffffffffffffffffffffffff163373ffffffffffffffffffffffffffffffffffffffff16146107eb576040517f08c379a00000000000000000000000000000000000000000000000000000000081526004016107e290612c64565b60405180910390fd5b600660008154809291906107fe90612cb3565b9190505550604051806060016040528060065481526020018373ffffffffffffffffffffffffffffffffffffffff168152602001828152506009600060065481526020019081526020016000206000820151816000015560208201518160010160006101000a81548173ffffffffffffffffffffffffffffffffffffffff021916908373ffffffffffffffffffffffffffffffffffffffff16021790555060408201518160020190816108b19190612ea7565b509050507fef378b7ae33a273f09c904a9a8601d264935a173fd8aa7a9b00b89839df7fa6e60065483836040516108ea939291906127d9565b60405180910390a15050565b610907610901611750565b82611811565b610946576040517f08c379a000000000000000000000000000000000000000000000000000000000815260040161093d90612feb565b60405180910390fd5b6109518383836118a6565b505050565b60001515600b600083815260200190815260200160002060009054906101000a900460ff1615151461098757600080fd5b610992838383611b0c565b505050565b60005b6006548111610ac8573373ffffffffffffffffffffffffffffffffffffffff166009600083815260200190815260200160002060010160009054906101000a900473ffffffffffffffffffffffffffffffffffffffff1673ffffffffffffffffffffffffffffffffffffffff1603610ab5576009600082815260200190815260200160002060010160009054906101000a900473ffffffffffffffffffffffffffffffffffffffff1673ffffffffffffffffffffffffffffffffffffffff163373ffffffffffffffffffffffffffffffffffffffff1614610ab0576040517f08c379a0000000000000000000000000000000000000000000000000000000008152600401610aa790613057565b60405180910390fd5b610ac8565b8080610ac090612cb3565b91505061099a565b5060096000600654815260200190815260200160002060010160009054906101000a900473ffffffffffffffffffffffffffffffffffffffff1673ffffffffffffffffffffffffffffffffffffffff163373ffffffffffffffffffffffffffffffffffffffff1614610b6f576040517f08c379a0000000000000000000000000000000000000000000000000000000008152600401610b6690613057565b60405180910390fd5b60076000815480929190610b8290612cb3565b91905055506040518060800160405280600754815260200184815260200183815260200182815250600a60006007548152602001908152602001600020600082015181600001556020820151816001019081610bde9190612ea7565b506040820151816002019081610bf49190612ea7565b506060820151816003019081610c0a9190612ea7565b50905050610c1a84600754611b2c565b7f9de026ade87f36b90ecdfb150976508b52a8aaa74d219db093f29324e42409b8600754848484604051610c519493929190612817565b60405180910390a150505050565b60075481565b60096020528060005260406000206000915090508060000154908060010160009054906101000a900473ffffffffffffffffffffffffffffffffffffffff1690806002018054610cb490612a9d565b80601f0160208091040260200160405190810160405280929190818152602001828054610ce090612a9d565b8015610d2d5780601f10610d0257610100808354040283529160200191610d2d565b820191906000526020600020905b815481529060010190602001808311610d1057829003601f168201915b5050505050905083565b600a602052806000526040600020600091509050806000015490806001018054610d6090612a9d565b80601f0160208091040260200160405190810160405280929190818152602001828054610d8c90612a9d565b8015610dd95780601f10610dae57610100808354040283529160200191610dd9565b820191906000526020600020905b815481529060010190602001808311610dbc57829003601f168201915b505050505090806002018054610dee90612a9d565b80601f0160208091040260200160405190810160405280929190818152602001828054610e1a90612a9d565b8015610e675780601f10610e3c57610100808354040283529160200191610e67565b820191906000526020600020905b815481529060010190602001808311610e4a57829003601f168201915b505050505090806003018054610e7c90612a9d565b80601f0160208091040260200160405190810160405280929190818152602001828054610ea890612a9d565b8015610ef55780601f10610eca57610100808354040283529160200191610ef5565b820191906000526020600020905b815481529060010190602001808311610ed857829003601f168201915b5050505050905084565b6000806002600084815260200190815260200160002060009054906101000a900473ffffffffffffffffffffffffffffffffffffffff169050600073ffffffffffffffffffffffffffffffffffffffff168173ffffffffffffffffffffffffffffffffffffffff1603610fa7576040517f08c379a0000000000000000000000000000000000000000000000000000000008152600401610f9e906130c3565b60405180910390fd5b80915050919050565b60008073ffffffffffffffffffffffffffffffffffffffff168273ffffffffffffffffffffffffffffffffffffffff1603611020576040517f08c379a000000000000000000000000000000000000000000000000000000000815260040161101790613155565b60405180910390fd5b600360008373ffffffffffffffffffffffffffffffffffffffff1673ffffffffffffffffffffffffffffffffffffffff168152602001908152602001600020549050919050565b60606001805461107690612a9d565b80601f01602080910402602001604051908101604052809291908181526020018280546110a290612a9d565b80156110ef5780601f106110c4576101008083540402835291602001916110ef565b820191906000526020600020905b8154815290600101906020018083116110d257829003601f168201915b5050505050905090565b61110b611104611750565b8383611d05565b5050565b60005b6006548111611240573373ffffffffffffffffffffffffffffffffffffffff166009600083815260200190815260200160002060010160009054906101000a900473ffffffffffffffffffffffffffffffffffffffff1673ffffffffffffffffffffffffffffffffffffffff160361122d576009600082815260200190815260200160002060010160009054906101000a900473ffffffffffffffffffffffffffffffffffffffff1673ffffffffffffffffffffffffffffffffffffffff163373ffffffffffffffffffffffffffffffffffffffff1614611228576040517f08c379a000000000000000000000000000000000000000000000000000000000815260040161121f90613057565b60405180910390fd5b611240565b808061123890612cb3565b915050611112565b5060096000600654815260200190815260200160002060010160009054906101000a900473ffffffffffffffffffffffffffffffffffffffff1673ffffffffffffffffffffffffffffffffffffffff163373ffffffffffffffffffffffffffffffffffffffff16146112e7576040517f08c379a00000000000000000000000000000000000000000000000000000000081526004016112de90613057565b60405180910390fd5b6000600b600083815260200190815260200160002060006101000a81548160ff02191690831515021790555050565b611327611321611750565b83611811565b611366576040517f08c379a000000000000000000000000000000000000000000000000000000000815260040161135d90612feb565b60405180910390fd5b61137284848484611e71565b50505050565b606061138382611705565b600061138d611ecd565b905060008151116113ad57604051806020016040528060008152506113d8565b806113b784611ee4565b6040516020016113c89291906131b1565b6040516020818303038152906040525b915050919050565b6000600560008473ffffffffffffffffffffffffffffffffffffffff1673ffffffffffffffffffffffffffffffffffffffff16815260200190815260200160002060008373ffffffffffffffffffffffffffffffffffffffff1673ffffffffffffffffffffffffffffffffffffffff16815260200190815260200160002060009054906101000a900460ff16905092915050565b600b6020528060005260406000206000915054906101000a900460ff1681565b60005b60065481116115c5573373ffffffffffffffffffffffffffffffffffffffff166009600083815260200190815260200160002060010160009054906101000a900473ffffffffffffffffffffffffffffffffffffffff1673ffffffffffffffffffffffffffffffffffffffff16036115b2576009600082815260200190815260200160002060010160009054906101000a900473ffffffffffffffffffffffffffffffffffffffff1673ffffffffffffffffffffffffffffffffffffffff163373ffffffffffffffffffffffffffffffffffffffff16146115ad576040517f08c379a00000000000000000000000000000000000000000000000000000000081526004016115a490613057565b60405180910390fd5b6115c5565b80806115bd90612cb3565b915050611497565b5060096000600654815260200190815260200160002060010160009054906101000a900473ffffffffffffffffffffffffffffffffffffffff1673ffffffffffffffffffffffffffffffffffffffff163373ffffffffffffffffffffffffffffffffffffffff161461166c576040517f08c379a000000000000000000000000000000000000000000000000000000000815260040161166390613057565b60405180910390fd5b6001600b600083815260200190815260200160002060006101000a81548160ff02191690831515021790555050565b60007f01ffc9a7000000000000000000000000000000000000000000000000000000007bffffffffffffffffffffffffffffffffffffffffffffffffffffffff1916827bffffffffffffffffffffffffffffffffffffffffffffffffffffffff1916149050919050565b61170e81612044565b61174d576040517f08c379a0000000000000000000000000000000000000000000000000000000008152600401611744906130c3565b60405180910390fd5b50565b600033905090565b816004600083815260200190815260200160002060006101000a81548173ffffffffffffffffffffffffffffffffffffffff021916908373ffffffffffffffffffffffffffffffffffffffff160217905550808273ffffffffffffffffffffffffffffffffffffffff166117cb83610eff565b73ffffffffffffffffffffffffffffffffffffffff167f8c5be1e5ebec7d5bd14f71427d1e84f3dd0314c0f7b2291e5b200ac8c7c3b92560405160405180910390a45050565b60008061181d83610eff565b90508073ffffffffffffffffffffffffffffffffffffffff168473ffffffffffffffffffffffffffffffffffffffff16148061185f575061185e81856113e0565b5b8061189d57508373ffffffffffffffffffffffffffffffffffffffff16611885846105e4565b73ffffffffffffffffffffffffffffffffffffffff16145b91505092915050565b8273ffffffffffffffffffffffffffffffffffffffff166118c682610eff565b73ffffffffffffffffffffffffffffffffffffffff161461191c576040517f08c379a000000000000000000000000000000000000000000000000000000000815260040161191390613247565b60405180910390fd5b600073ffffffffffffffffffffffffffffffffffffffff168273ffffffffffffffffffffffffffffffffffffffff160361198b576040517f08c379a0000000000000000000000000000000000000000000000000000000008152600401611982906132d9565b60405180910390fd5b6119968383836120b0565b6119a1600082611758565b6001600360008573ffffffffffffffffffffffffffffffffffffffff1673ffffffffffffffffffffffffffffffffffffffff16815260200190815260200160002060008282546119f191906132f9565b925050819055506001600360008473ffffffffffffffffffffffffffffffffffffffff1673ffffffffffffffffffffffffffffffffffffffff1681526020019081526020016000206000828254611a48919061332d565b92505081905550816002600083815260200190815260200160002060006101000a81548173ffffffffffffffffffffffffffffffffffffffff021916908373ffffffffffffffffffffffffffffffffffffffff160217905550808273ffffffffffffffffffffffffffffffffffffffff168473ffffffffffffffffffffffffffffffffffffffff167fddf252ad1be2c89b69c2b068fc378daa952ba7f163c4a11628f55a4df523b3ef60405160405180910390a4611b078383836120b5565b505050565b611b2783838360405180602001604052806000815250611316565b505050565b600073ffffffffffffffffffffffffffffffffffffffff168273ffffffffffffffffffffffffffffffffffffffff1603611b9b576040517f08c379a0000000000000000000000000000000000000000000000000000000008152600401611b92906133ad565b60405180910390fd5b611ba481612044565b15611be4576040517f08c379a0000000000000000000000000000000000000000000000000000000008152600401611bdb90613419565b60405180910390fd5b611bf0600083836120b0565b6001600360008473ffffffffffffffffffffffffffffffffffffffff1673ffffffffffffffffffffffffffffffffffffffff1681526020019081526020016000206000828254611c40919061332d565b92505081905550816002600083815260200190815260200160002060006101000a81548173ffffffffffffffffffffffffffffffffffffffff021916908373ffffffffffffffffffffffffffffffffffffffff160217905550808273ffffffffffffffffffffffffffffffffffffffff16600073ffffffffffffffffffffffffffffffffffffffff167fddf252ad1be2c89b69c2b068fc378daa952ba7f163c4a11628f55a4df523b3ef60405160405180910390a4611d01600083836120b5565b5050565b8173ffffffffffffffffffffffffffffffffffffffff168373ffffffffffffffffffffffffffffffffffffffff1603611d73576040517f08c379a0000000000000000000000000000000000000000000000000000000008152600401611d6a90613485565b60405180910390fd5b80600560008573ffffffffffffffffffffffffffffffffffffffff1673ffffffffffffffffffffffffffffffffffffffff16815260200190815260200160002060008473ffffffffffffffffffffffffffffffffffffffff1673ffffffffffffffffffffffffffffffffffffffff16815260200190815260200160002060006101000a81548160ff0219169083151502179055508173ffffffffffffffffffffffffffffffffffffffff168373ffffffffffffffffffffffffffffffffffffffff167f17307eab39ab6107e8899845ad3d59bd9653f200f220920489ca2b5937696c3183604051611e649190612318565b60405180910390a3505050565b611e7c8484846118a6565b611e88848484846120ba565b611ec7576040517f08c379a0000000000000000000000000000000000000000000000000000000008152600401611ebe90613517565b60405180910390fd5b50505050565b606060405180602001604052806000815250905090565b606060008203611f2b576040518060400160405280600181526020017f3000000000000000000000000000000000000000000000000000000000000000815250905061203f565b600082905060005b60008214611f5d578080611f4690612cb3565b915050600a82611f569190613566565b9150611f33565b60008167ffffffffffffffff811115611f7957611f78612544565b5b6040519080825280601f01601f191660200182016040528015611fab5781602001600182028036833780820191505090505b5090505b6000851461203857600182611fc491906132f9565b9150600a85611fd39190613597565b6030611fdf919061332d565b60f81b818381518110611ff557611ff46135c8565b5b60200101907effffffffffffffffffffffffffffffffffffffffffffffffffffffffffffff1916908160001a905350600a856120319190613566565b9450611faf565b8093505050505b919050565b60008073ffffffffffffffffffffffffffffffffffffffff166002600084815260200190815260200160002060009054906101000a900473ffffffffffffffffffffffffffffffffffffffff1673ffffffffffffffffffffffffffffffffffffffff1614159050919050565b505050565b505050565b60006120db8473ffffffffffffffffffffffffffffffffffffffff16612241565b15612234578373ffffffffffffffffffffffffffffffffffffffff1663150b7a02612104611750565b8786866040518563ffffffff1660e01b8152600401612126949392919061364c565b6020604051808303816000875af192505050801561216257506040513d601f19601f8201168201806040525081019061215f91906136ad565b60015b6121e4573d8060008114612192576040519150601f19603f3d011682016040523d82523d6000602084013e612197565b606091505b5060008151036121dc576040517f08c379a00000000000000000000000000000000000000000000000000000000081526004016121d390613517565b60405180910390fd5b805181602001fd5b63150b7a0260e01b7bffffffffffffffffffffffffffffffffffffffffffffffffffffffff1916817bffffffffffffffffffffffffffffffffffffffffffffffffffffffff191614915050612239565b600190505b949350505050565b6000808273ffffffffffffffffffffffffffffffffffffffff163b119050919050565b6000604051905090565b600080fd5b600080fd5b60007fffffffff0000000000000000000000000000000000000000000000000000000082169050919050565b6122ad81612278565b81146122b857600080fd5b50565b6000813590506122ca816122a4565b92915050565b6000602082840312156122e6576122e561226e565b5b60006122f4848285016122bb565b91505092915050565b60008115159050919050565b612312816122fd565b82525050565b600060208201905061232d6000830184612309565b92915050565b600081519050919050565b600082825260208201905092915050565b60005b8381101561236d578082015181840152602081019050612352565b60008484015250505050565b6000601f19601f8301169050919050565b600061239582612333565b61239f818561233e565b93506123af81856020860161234f565b6123b881612379565b840191505092915050565b600060208201905081810360008301526123dd818461238a565b905092915050565b6000819050919050565b6123f8816123e5565b811461240357600080fd5b50565b600081359050612415816123ef565b92915050565b6000602082840312156124315761243061226e565b5b600061243f84828501612406565b91505092915050565b600073ffffffffffffffffffffffffffffffffffffffff82169050919050565b600061247382612448565b9050919050565b61248381612468565b82525050565b600060208201905061249e600083018461247a565b92915050565b6124ad81612468565b81146124b857600080fd5b50565b6000813590506124ca816124a4565b92915050565b600080604083850312156124e7576124e661226e565b5b60006124f5858286016124bb565b925050602061250685828601612406565b9150509250929050565b612519816123e5565b82525050565b60006020820190506125346000830184612510565b92915050565b600080fd5b600080fd5b7f4e487b7100000000000000000000000000000000000000000000000000000000600052604160045260246000fd5b61257c82612379565b810181811067ffffffffffffffff8211171561259b5761259a612544565b5b80604052505050565b60006125ae612264565b90506125ba8282612573565b919050565b600067ffffffffffffffff8211156125da576125d9612544565b5b6125e382612379565b9050602081019050919050565b82818337600083830152505050565b600061261261260d846125bf565b6125a4565b90508281526020810184848401111561262e5761262d61253f565b5b6126398482856125f0565b509392505050565b600082601f8301126126565761265561253a565b5b81356126668482602086016125ff565b91505092915050565b600080604083850312156126865761268561226e565b5b6000612694858286016124bb565b925050602083013567ffffffffffffffff8111156126b5576126b4612273565b5b6126c185828601612641565b9150509250929050565b6000806000606084860312156126e4576126e361226e565b5b60006126f2868287016124bb565b9350506020612703868287016124bb565b925050604061271486828701612406565b9150509250925092565b600080600080608085870312156127385761273761226e565b5b6000612746878288016124bb565b945050602085013567ffffffffffffffff81111561276757612766612273565b5b61277387828801612641565b935050604085013567ffffffffffffffff81111561279457612793612273565b5b6127a087828801612641565b925050606085013567ffffffffffffffff8111156127c1576127c0612273565b5b6127cd87828801612641565b91505092959194509250565b60006060820190506127ee6000830186612510565b6127fb602083018561247a565b818103604083015261280d818461238a565b9050949350505050565b600060808201905061282c6000830187612510565b818103602083015261283e818661238a565b90508181036040830152612852818561238a565b90508181036060830152612866818461238a565b905095945050505050565b6000602082840312156128875761288661226e565b5b6000612895848285016124bb565b91505092915050565b6128a7816122fd565b81146128b257600080fd5b50565b6000813590506128c48161289e565b92915050565b600080604083850312156128e1576128e061226e565b5b60006128ef858286016124bb565b9250506020612900858286016128b5565b9150509250929050565b600067ffffffffffffffff82111561292557612924612544565b5b61292e82612379565b9050602081019050919050565b600061294e6129498461290a565b6125a4565b90508281526020810184848401111561296a5761296961253f565b5b6129758482856125f0565b509392505050565b600082601f8301126129925761299161253a565b5b81356129a284826020860161293b565b91505092915050565b600080600080608085870312156129c5576129c461226e565b5b60006129d3878288016124bb565b94505060206129e4878288016124bb565b93505060406129f587828801612406565b925050606085013567ffffffffffffffff811115612a1657612a15612273565b5b612a228782880161297d565b91505092959194509250565b60008060408385031215612a4557612a4461226e565b5b6000612a53858286016124bb565b9250506020612a64858286016124bb565b9150509250929050565b7f4e487b7100000000000000000000000000000000000000000000000000000000600052602260045260246000fd5b60006002820490506001821680612ab557607f821691505b602082108103612ac857612ac7612a6e565b5b50919050565b7f4552433732313a20617070726f76616c20746f2063757272656e74206f776e6560008201527f7200000000000000000000000000000000000000000000000000000000000000602082015250565b6000612b2a60218361233e565b9150612b3582612ace565b604082019050919050565b60006020820190508181036000830152612b5981612b1d565b9050919050565b7f4552433732313a20617070726f76652063616c6c6572206973206e6f7420746f60008201527f6b656e206f776e6572206e6f7220617070726f76656420666f7220616c6c0000602082015250565b6000612bbc603e8361233e565b9150612bc782612b60565b604082019050919050565b60006020820190508181036000830152612beb81612baf565b9050919050565b7f596f7520617265206e6f7420617574686f72697a656420746f2063726561746560008201527f20616e2041646d696e0000000000000000000000000000000000000000000000602082015250565b6000612c4e60298361233e565b9150612c5982612bf2565b604082019050919050565b60006020820190508181036000830152612c7d81612c41565b9050919050565b7f4e487b7100000000000000000000000000000000000000000000000000000000600052601160045260246000fd5b6000612cbe826123e5565b91507fffffffffffffffffffffffffffffffffffffffffffffffffffffffffffffffff8203612cf057612cef612c84565b5b600182019050919050565b60008190508160005260206000209050919050565b60006020601f8301049050919050565b600082821b905092915050565b600060088302612d5d7fffffffffffffffffffffffffffffffffffffffffffffffffffffffffffffffff82612d20565b612d678683612d20565b95508019841693508086168417925050509392505050565b6000819050919050565b6000612da4612d9f612d9a846123e5565b612d7f565b6123e5565b9050919050565b6000819050919050565b612dbe83612d89565b612dd2612dca82612dab565b848454612d2d565b825550505050565b600090565b612de7612dda565b612df2818484612db5565b505050565b5b81811015612e1657612e0b600082612ddf565b600181019050612df8565b5050565b601f821115612e5b57612e2c81612cfb565b612e3584612d10565b81016020851015612e44578190505b612e58612e5085612d10565b830182612df7565b50505b505050565b600082821c905092915050565b6000612e7e60001984600802612e60565b1980831691505092915050565b6000612e978383612e6d565b9150826002028217905092915050565b612eb082612333565b67ffffffffffffffff811115612ec957612ec8612544565b5b612ed38254612a9d565b612ede828285612e1a565b600060209050601f831160018114612f115760008415612eff578287015190505b612f098582612e8b565b865550612f71565b601f198416612f1f86612cfb565b60005b82811015612f4757848901518255600182019150602085019450602081019050612f22565b86831015612f645784890151612f60601f891682612e6d565b8355505b6001600288020188555050505b505050505050565b7f4552433732313a2063616c6c6572206973206e6f7420746f6b656e206f776e6560008201527f72206e6f7220617070726f766564000000000000000000000000000000000000602082015250565b6000612fd5602e8361233e565b9150612fe082612f79565b604082019050919050565b6000602082019050818103600083015261300481612fc8565b9050919050565b7f596f7520617265206e6f74204f776e6572210000000000000000000000000000600082015250565b600061304160128361233e565b915061304c8261300b565b602082019050919050565b6000602082019050818103600083015261307081613034565b9050919050565b7f4552433732313a20696e76616c696420746f6b656e2049440000000000000000600082015250565b60006130ad60188361233e565b91506130b882613077565b602082019050919050565b600060208201905081810360008301526130dc816130a0565b9050919050565b7f4552433732313a2061646472657373207a65726f206973206e6f74206120766160008201527f6c6964206f776e65720000000000000000000000000000000000000000000000602082015250565b600061313f60298361233e565b915061314a826130e3565b604082019050919050565b6000602082019050818103600083015261316e81613132565b9050919050565b600081905092915050565b600061318b82612333565b6131958185613175565b93506131a581856020860161234f565b80840191505092915050565b60006131bd8285613180565b91506131c98284613180565b91508190509392505050565b7f4552433732313a207472616e736665722066726f6d20696e636f72726563742060008201527f6f776e6572000000000000000000000000000000000000000000000000000000602082015250565b600061323160258361233e565b915061323c826131d5565b604082019050919050565b6000602082019050818103600083015261326081613224565b9050919050565b7f4552433732313a207472616e7366657220746f20746865207a65726f2061646460008201527f7265737300000000000000000000000000000000000000000000000000000000602082015250565b60006132c360248361233e565b91506132ce82613267565b604082019050919050565b600060208201905081810360008301526132f2816132b6565b9050919050565b6000613304826123e5565b915061330f836123e5565b925082820390508181111561332757613326612c84565b5b92915050565b6000613338826123e5565b9150613343836123e5565b925082820190508082111561335b5761335a612c84565b5b92915050565b7f4552433732313a206d696e7420746f20746865207a65726f2061646472657373600082015250565b600061339760208361233e565b91506133a282613361565b602082019050919050565b600060208201905081810360008301526133c68161338a565b9050919050565b7f4552433732313a20746f6b656e20616c7265616479206d696e74656400000000600082015250565b6000613403601c8361233e565b915061340e826133cd565b602082019050919050565b60006020820190508181036000830152613432816133f6565b9050919050565b7f4552433732313a20617070726f766520746f2063616c6c657200000000000000600082015250565b600061346f60198361233e565b915061347a82613439565b602082019050919050565b6000602082019050818103600083015261349e81613462565b9050919050565b7f4552433732313a207472616e7366657220746f206e6f6e20455243373231526560008201527f63656976657220696d706c656d656e7465720000000000000000000000000000602082015250565b600061350160328361233e565b915061350c826134a5565b604082019050919050565b60006020820190508181036000830152613530816134f4565b9050919050565b7f4e487b7100000000000000000000000000000000000000000000000000000000600052601260045260246000fd5b6000613571826123e5565b915061357c836123e5565b92508261358c5761358b613537565b5b828204905092915050565b60006135a2826123e5565b91506135ad836123e5565b9250826135bd576135bc613537565b5b828206905092915050565b7f4e487b7100000000000000000000000000000000000000000000000000000000600052603260045260246000fd5b600081519050919050565b600082825260208201905092915050565b600061361e826135f7565b6136288185613602565b935061363881856020860161234f565b61364181612379565b840191505092915050565b6000608082019050613661600083018761247a565b61366e602083018661247a565b61367b6040830185612510565b818103606083015261368d8184613613565b905095945050505050565b6000815190506136a7816122a4565b92915050565b6000602082840312156136c3576136c261226e565b5b60006136d184828501613698565b9150509291505056fea264697066735822122061d4d53571902eeb42f202bc12967c85b2d0fa12a9c75142a9871a6deee56b3a64736f6c634300081100334e4654204b72756e677372692053656375726974696573205075626c696320436f6d70616e79204c696d697465642e",
  "immutableReferences": {},
  "source": "// SPDX-License-Identifier: GPL-3.0\r\npragma solidity >=0.7.0 <0.9.0;\r\nimport \"../node_modules/@openzeppelin/contracts/token/ERC721/ERC721.sol\";\r\n\r\ncontract NFTCowCert is ERC721 {\r\n    // Permission address at create Certificate and send new cert to Customers.\r\n    uint256 public ownerCount = 0;\r\n    uint256 public NFTCowCount = 0;\r\n    address[] government;\r\n    struct AdAdmin {\r\n        uint256 userId;\r\n        address government;\r\n        string username;\r\n    }\r\n    struct AddNFTCow {\r\n        uint256 id;\r\n        string tokendId;\r\n        string cowCertlist;\r\n        string imgPath;\r\n    }\r\n    mapping(uint256 => AdAdmin) public TaskMapOwner;\r\n    mapping(uint256 => AddNFTCow) public BlocklistNFTCow;\r\n    mapping(uint256 => bool) public blockCowcert;\r\n\r\n    // mapping(uint256 => bool) internal blockCowcert;\r\n    constructor() ERC721(\"NFT Krungsri Securities Public Company Limited.\", \"NFTKSS\") {\r\n        TaskMapOwner[ownerCount] = AdAdmin(ownerCount, msg.sender, \"Suradath\");\r\n    }\r\n\r\n    modifier onlyGovernment() {\r\n        for (uint256 i = 0; i <= ownerCount; i++) {\r\n            if (TaskMapOwner[i].government == msg.sender) {\r\n                require(\r\n                    msg.sender == TaskMapOwner[i].government,\r\n                    \"You are not Owner!\"\r\n                );\r\n                break;\r\n            }\r\n        }\r\n        require(\r\n            msg.sender == TaskMapOwner[ownerCount].government,\r\n            \"You are not Owner!\"\r\n        );\r\n        _;\r\n    }\r\n    event TaskCreatedadmin(uint256 userId, address government, string username);\r\n    event TaskCreateNFTCowCert(\r\n        uint256 id,\r\n        string tokendid,\r\n        string cowCertlist,\r\n        string imgPath\r\n    );\r\n\r\n    function addNFTCowAdmin(address _government, string memory _username) public {\r\n        require(\r\n            msg.sender == TaskMapOwner[0].government,\r\n            \"You are not authorized to create an Admin\"\r\n        );\r\n        ownerCount++;\r\n        TaskMapOwner[ownerCount] = AdAdmin(ownerCount, _government, _username);\r\n        emit TaskCreatedadmin(ownerCount, _government, _username);\r\n    }\r\n\r\n    function tokenMintCowCert(\r\n        address _custCowCert,\r\n        string memory _tokenId,\r\n        string memory _cowCertlist,\r\n        string memory _imgPath\r\n    ) public onlyGovernment {\r\n        NFTCowCount++;\r\n        BlocklistNFTCow[NFTCowCount] = AddNFTCow(\r\n            NFTCowCount,\r\n            _tokenId,\r\n            _cowCertlist,\r\n            _imgPath\r\n        );\r\n        // super._mint(_custCowCert, _tokenId);\r\n        super._mint(_custCowCert, NFTCowCount);\r\n        emit TaskCreateNFTCowCert(NFTCowCount, _tokenId, _cowCertlist, _imgPath);\r\n    }\r\n\r\n    // Stop or block Cowcoin Nft from buying or selling.\r\n    function blockNFTCow(uint256 _tokenId) public onlyGovernment {\r\n        blockCowcert[_tokenId] = true;\r\n    }\r\n\r\n    function unBlockNFTCow(uint256 _tokenId) public onlyGovernment {\r\n        blockCowcert[_tokenId] = false;\r\n    }\r\n\r\n    // Setup sell  Customer Payment to sell  Customer type P2P\r\n    function safeTransferFrom(\r\n        address _from,\r\n        address _to,\r\n        uint256 _tokenId\r\n    ) public virtual override {\r\n        require(blockCowcert[_tokenId] == false);\r\n        super.safeTransferFrom(_from, _to, _tokenId);\r\n    }\r\n}\r\n",
  "sourcePath": "C:\\xampp\\htdocs\\TokenKss\\clientkss\\contracts\\NFTCowCert.sol",
  "compiler": {
    "name": "solc",
    "version": "0.8.17+commit.8df45f5f.Emscripten.clang"
  },
  "schemaVersion": "3.4.11",
  "updatedAt": "2023-02-16T04:28:31.574Z",
  "networkType": "ethereum",
  "devdoc": {
    "kind": "dev",
    "methods": {
      "approve(address,uint256)": {
        "details": "See {IERC721-approve}."
      },
      "balanceOf(address)": {
        "details": "See {IERC721-balanceOf}."
      },
      "getApproved(uint256)": {
        "details": "See {IERC721-getApproved}."
      },
      "isApprovedForAll(address,address)": {
        "details": "See {IERC721-isApprovedForAll}."
      },
      "name()": {
        "details": "See {IERC721Metadata-name}."
      },
      "ownerOf(uint256)": {
        "details": "See {IERC721-ownerOf}."
      },
      "safeTransferFrom(address,address,uint256,bytes)": {
        "details": "See {IERC721-safeTransferFrom}."
      },
      "setApprovalForAll(address,bool)": {
        "details": "See {IERC721-setApprovalForAll}."
      },
      "supportsInterface(bytes4)": {
        "details": "See {IERC165-supportsInterface}."
      },
      "symbol()": {
        "details": "See {IERC721Metadata-symbol}."
      },
      "tokenURI(uint256)": {
        "details": "See {IERC721Metadata-tokenURI}."
      },
      "transferFrom(address,address,uint256)": {
        "details": "See {IERC721-transferFrom}."
      }
    },
    "version": 1
  },
  "userdoc": {
    "kind": "user",
    "methods": {},
    "version": 1
  }
}